:020000040800F2
:1000000000040020F90000085501000899030008C9
:1000100055010008550100085501000800000000C6
:100020000000000000000000000000005501000872
:1000300055010008000000005501000855010008A6
:100040005501000855010008550100085501000838
:100050005501000855010008550100085501000828
:100060005501000855010008550100085501000818
:100070005501000855010008550100085501000808
:1000800055010008550100085501000855010008F8
:1000900055010008550100085501000855010008E8
:1000A00055010008550100085501000855010008D8
:1000B00027030008710300085501000855010008D6
:1000C00055010008550100085501000855010008B8
:1000D00055010008A103000855010008550100085A
:1000E000550100085501000855010008D504000815
:1000F000550100085FF808F180B582B000AF104BE1
:100100007B60104B3B6007E07A68131D7B603B68A7
:10011000191D396012681A603B680B4A9342F3D389
:100120000A480B494FF000028842B8BF40F8042B40
:10013000FADB00F0A9F800BF0837BD4680BD00BF5C
:10014000B04C0008000400203104002034040020DA
:100150006006002080B400AFFEE780B400AF62B656
:1001600000BFBD4680BC704780B483B000AF0023A1
:100170007B6000233B60414B1B68404A43F0010316
:1001800013603E4B1B6803F002033B607B68013346
:100190007B603B68002B03D17B68B3F5A04FF0D1A7
:1001A000364B1B6803F00203002B02D001233B6097
:1001B00001E000233B603B68012B5AD1304B1B68A8
:1001C0002F4A43F0040313602D4B1B682C4A43F065
:1001D000020313602A4B1B68294A43F00103136092
:1001E000264B5B6A254A43F080535362254B4FF4FC
:1001F00000621A6000BF234B5B6803F01003002B02
:10020000F9D11E4B1D4A9B6893601C4B1B4A9B688F
:1002100093601A4B194A9B689360184B9B68174A66
:1002200023F47D039360154B9B68144A43F4080341
:100230009360124B1B68114A43F08073136000BF38
:100240000E4B1B6803F00073002BF9D00B4B9B681F
:100250000A4A23F003039360084B9B68074A43F064
:100260000303936000BF054B9B6803F00C030C2B4A
:10027000F9D100BF0C37BD4680BC70470038024042
:10028000003C02400070004080B582B002AFFFF732
:100290006BFF4FF4A06001F029FC0121012002F066
:1002A000BFFE04F0B9F801230093002300220021CF
:1002B000012001F00FFB0123009300230022002105
:1002C000022001F007FB01F023F801F049FA04F0E5
:1002D000F7F900F091F9FFF740FF012001F072FB00
:1002E0000346002B03D104F0B1F904F0E9F9022030
:1002F00001F068FB0346002B03D104F0BFF904F0C2
:10030000DFF9642001F0CAFB01F052FA0346002B2A
:10031000E3D001F057FA01F02DFA0346002BDCD0B0
:1003200004F0CEF9D9E780B500AF02214FF080404C
:1003300003F0CCFA0346002B07D002214FF0804097
:1003400003F03EFB082001F021FB01214FF080402B
:1003500003F0BCFA0346002B07D001214FF0804088
:1003600003F02EFB082001F0F5FA00BF80BD00006D
:1003700080B500AF0121074803F0A8FA0346002B1F
:1003800005D00121034803F01BFB01F001FA00BF77
:1003900080BD00BF0004004080B400AFFEE7000055
:1003A00080B582B000AF0023FB710023BB7140F227
:1003B0002551454803F0DCFE0346002B31D040F2C6
:1003C0002551414803F0A0FF3F4B1B889BB203F02F
:1003D0000F03002B1CD13C4803F080FD0346FB714A
:1003E0003A4B1B78012B1CD1384B00229A60374BBB
:1003F000DB8AB3F5827F14D2344BDB8A5A1C91B26C
:10040000324AD1821A46314B1344FA791A7608E0FF
:100410002D4B1B889BB2BB712B4803F05FFD03463D
:10042000FB7140F22661284803F0A2FE0346002B30
:1004300030D040F22661244803F066FF234B1B783E
:10044000022B27D1214B01221A70204B00221A6166
:100450004FF4005001F0F0FE00211D4801F01AFE9B
:1004600000228021184803F06DFD002240F2266131
:10047000154803F0C7FD012240F22551124803F050
:10048000C1FD002240F226610F4803F0BBFD0B20A6
:1004900001F07CFA4FF458710B4803F069FE0346F3
:1004A000002B0DD04FF45871074803F02DFF064B79
:1004B0001B889BB2BB71044803F010FD0346FB711F
:1004C00000BF0837BD4680BD003801403C04002015
:1004D0004460024080B500AF01213F4803F07AF943
:1004E0000346002B72D001213B4803F069FA3B4BD5
:1004F0001B78012B2DD1394BDB8A002B29D0374BB0
:100500009B680133354A9360344B9A68334B5B6880
:100510009A421ED9314B00229A60304B1B7E9AB210
:100520002E4B9B8A9A4203D02C4B1B7E002B0DD165
:10053000002240F225512A4803F064FD274B9B8A94
:10054000284A1946012000F08FF902E0234B0022CF
:10055000DA82224B1B78022B3BD1204B1B690133E3
:100560001E4A13611D4B1A691C4BDB689A4230D935
:1005700040F226611A4803F0C7FE002240F22661CD
:10058000174803F03FFD00228021154803F0DAFCF4
:100590004FF4005001F050FE0021134801F07AFDA5
:1005A0000E4B01221A700D4B00221A61012240F2FB
:1005B00025510B4803F026FD002240F22661084831
:1005C00003F020FD0B2001F0E1F902E0024B0022D4
:1005D0001A8200BF80BD00BF001000403C04002014
:1005E00000380140520400204460024080B483B0CF
:1005F00000AF78603960FEE780B500AF00F03DFBEA
:1006000000BF80BD80B485B000AF78600023FB815F
:100610007B6800225A707B6800221A707B68002277
:100620001A717B680122DA807B68002283F8052139
:100630000023FB8107E0FB897A68134400221A72C9
:10064000FB890133FB81FB89FC2BF4D900BF1437F4
:10065000BD4680BC704780B485B000AF7860002391
:10066000FB810023FB8107E0FB897A6813440022A9
:100670009A70FB890133FB81FB89B3F5827FF3D349
:100680007B6800221A8000BF1437BD4680BC7047CB
:1006900080B489B000AF0346B9607A60FB73002371
:1006A000FB830023BB83FB7B002B01D1072300E0EE
:1006B00001237B83FB7B002B01D1002300E002237D
:1006C0003B83FB7B002B02D14FF4827301E04FF49C
:1006D0008073FB82FB7B012B03D17B689A78BB681C
:1006E0001A700023FB8397E0FB8B052B60D801A2D7
:1006F00052F823F00D0700081F070008370700080D
:10070000530700087307000897070008FA8B7B8BD4
:1007100013447A6813449A78BB685A7079E0FA8B6C
:100720007B8B13447A6813449B789BB21B029AB26A
:10073000BB685A806DE0BB685A88F98B7B8B0B4491
:1007400079680B449B789BB213449AB2BB685A8079
:100750005FE0BB685B78042B58D1FA8B7B8B13442A
:100760007A6813449B789BB21B029AB2BB68DA800A
:100770004CE0BB685B78042B4AD1BB68DA88F98B04
:100780007B8B0B4479680B449B789BB213449AB2E1
:10079000BB68DA803CE0FA8B7B8B13447A681344A5
:1007A0009A78BB689A72BB68032283F8052130E00F
:1007B000FB8BBB8314E0BA8B7B8B1A44BB6893F82A
:1007C0000531591CC8B2B96881F8050119467B6822
:1007D00013449A78BB680B441A72BB8B0133BB83FA
:1007E000BA8B7B681B8819467B8BC91A3B8BCB1A4B
:1007F0009A4223DABA8B7B8B1A44FB8A9A421DDA1F
:10080000BB6893F80531FC2BD5D917E000BF00E099
:1008100000BFFB8B0133FB83FA8B7B681B88194677
:100820007B8BC91A3B8BCB1A9A4208DAFA8B7B8BEB
:100830001A44FB8A9A42FFF657AF00E000BF243704
:10084000BD4680BC704700BF80B582B000AF786005
:100850000B46FB70FB781946786800F04FFB0346A7
:1008600018460837BD4680BD80B5C8B000AF3B46CE
:100870001A60BB1D02461A803B1D0A461A800023DF
:10088000A7F81C31002387F81F31BB1D1B88012BE3
:1008900006D13B461B681B88032B03D80423D1E0F9
:1008A0000423CFE007F10C031846FFF7ABFEBB1D96
:1008B0001B88D8B23B4607F10C011A68FFF7E8FE27
:1008C0003B46186800F0EEFA0346052B01D10023E1
:1008D000B8E007F10C031B789BB23A1D12889A42CC
:1008E00006D007F10C031B78002B01D00023A9E0F0
:1008F00007F10C035B78042B40F0938007F10C03A5
:10090000DB88002B00F0878007F10C03DB88032BCA
:1009100000F28180002387F81E316FE007F10C039D
:100920005B881A4697F81E311344012B21D0022B05
:100930003DD0002B59D100F0BDFD0346A7F816317C
:10094000B7F916311B121AB297F81E315B00D1B2FB
:1009500007F10C0213440A461A72B7F916311B123A
:100960001BB2DAB207F10C03DA72002387F81F31E9
:100970003FE000F04BFD0346A7F81831B7F81831F7
:100980001B0A9AB297F81E315B00D1B207F10C0234
:1009900013440A461A72B7F818311B0A9BB2DAB22E
:1009A00007F10C03DA72002387F81F3121E000F011
:1009B00095FE0346A7F81A31B7F81A311B0A9AB206
:1009C00097F81E315B00D1B207F10C0213440A46BE
:1009D0001A72B7F81A311B0A9BB2DAB207F10C038C
:1009E000DA72002387F81F3103E0022387F81F31F2
:1009F00000BF97F81E31013387F81E3197F81E317A
:100A00009AB207F10C03DB889A4208D297F81F319B
:100A1000002B83D003E0022387F81F3105E000BFDD
:100A200003E0012387F81F3100BF97F81F2107F16A
:100A30000C0311461846FFF707FF034687F81531E8
:100A400097F81531184607F59077BD4680BD000030
:100A500080B483B000AF0346FB71FB7903F01F0342
:100A6000012202FA03F1054A97F907305B0942F8BF
:100A7000231000BF0C37BD4680BC704700E100E08A
:100A800080B400AF0E4B01221A700D4B0022DA82A7
:100A90000B4B0022A3F81C21094B00225A60084B83
:100AA00000229A60064B00221A61054B054ADA6063
:100AB000034B48229A8200BFBD4680BC704700BFEE
:100AC0003C040020E093040080B582B002AF002314
:100AD0000093002302220221092000F0FBFE0023E4
:100AE00000930023022202210A2000F0F3FE0023DB
:100AF00000930023012202210B2000F0EBFE0721CE
:100B0000092000F083FF07210A2000F07FFF012267
:100B100040F22551074803F075FA002240F22661A1
:100B2000044803F06FFA0B2000F030FF00BFBD4611
:100B300080BD00BF0038014080B584B000AF134BCA
:100B400048229A82124802F093FF01214FF480401C
:100B500002F066FA3B46184603F056F90C237B81F7
:100B600000233B810023BB800023FB804FF41653FE
:100B70003B603B461946064802F0F0FF034B4FF43A
:100B8000D4725A6000BF1037BD4680BD3C040020BF
:100B90000038014080B584B000AF124802F028FB55
:100BA0000121102002F076FA3B1D184602F082FC6B
:100BB0003F23BB800023BB810023FB800923BB6054
:100BC0003B1D1946074802F0C9FB0121054802F008
:100BD000F7FE01220121034802F086FD00BF103715
:100BE000BD4680BD0010004080B58CB000AF012133
:100BF0004FF0807002F0DAF90E4801F021F83B1D49
:100C0000184601F01DFA0C4B7B601023FB6000239B
:100C10007B618023BB610023FB6100233B620123D6
:100C20003B613B1D1946034801F0FAF800BF30371D
:100C3000BD4680BD446002400438014080B582B0AA
:100C400000AF25233B7102237B710023BB7101237D
:100C5000FB713B1D184600F075FF2B233B710223EF
:100C60007B710123BB710123FB713B1D184600F012
:100C700069FF00BF0837BD4680BD80B500AFFFF7F4
:100C8000FFFEFFF721FFFFF757FFFFF783FFFFF797
:100C9000ABFFFFF7D3FF00F003F800BF80BD0000FB
:100CA00080B500AF1E4B0022DA821D4B0022A3F854
:100CB0001C211B4B00229A60194B00221A61184B11
:100CC00001221A70012240F22551164803F09AF9C8
:100CD000002240F22661134803F094F90B2000F043
:100CE00055FE40F225510F4803F00EFB40F22661FD
:100CF0000C4803F009FB01210A4803F0A1F8012187
:100D0000094802F05DFE0121074802F0E9FB2520B9
:100D1000FFF79EFE2B20FFF79BFE00BF80BD00BFAC
:100D20003C040020003801400010004080B584B031
:100D300000AF78600023FB817B68002B4FD0374BDE
:100D400002221A70354B0022A3F81C21334B0022DB
:100D5000DA820023FB8113E0FA89304BB3F81C31AF
:100D6000591C88B22D49A1F81C0119467B6813440F
:100D70009A782A4B0B4483F81E21FB890133FB81AF
:100D80007B681B88FA899A4203D2FB89B3F5827F7C
:100D9000E2D30021224801F07DF9204BB3F81C3149
:100DA00019461F4801F0ECF91D4B1E4ADA6040F26B
:100DB00026611D4803F0A8FA012240F226611A4874
:100DC00003F020F90B2000F0C5FD01228021164818
:100DD00003F0B8F80121124801F05CF918E00F4B5C
:100DE00001221A700D4B0022A3F81C210B4B00228C
:100DF000DA82012240F225510B4803F003F9002268
:100E000040F22661084803F0FDF80B2000F0BEFD1B
:100E1000002318461037BD4680BD00BF3C040020AB
:100E2000446002405A0500200038014080B485B07B
:100E300000AF7860FF23FB73FF23BB7300237B812C
:100E40000023BB810023BB8114E0BB897A68134473
:100E50009A78BB7B5340DBB27B817B890F4AD25CA3
:100E6000FB7B5340BB737B890D4AD35CFB73BB890F
:100E70000133BB81BA897B681B88023B9A42E4DB61
:100E8000FB7B1B021AB2BB7B1BB213431BB29BB290
:100E900018461437BD4680BC704700BFB04A0008F2
:100EA000B04B000880B584B000AF78607B681B88C9
:100EB000022B1ED97B681B88013B7A6813449B7800
:100EC0009BB21B029AB27B681B88023B79680B4479
:100ED0009B789BB21344FB817868FFF7A7FF03461A
:100EE000BB81FA89BB899A4201D1002302E0052324
:100EF00000E0052318461037BD4680BD80B5C6B05A
:100F000000AF3B1D18600A46FB1C1A700023A7F8AF
:100F100016310023A7F8143107F10C031846FFF728
:100F20009AFB3B1D1B681A7807F10C039A703B1D56
:100F30001B681B78002B04D10020FFF7F7FE034647
:100F400080E1FB1C1B78002B40F03B813B1D1B68A4
:100F50005B78012B37D03B1D1B685B78022B32D0AE
:100F60003B1D1B685B780F2B2DD03B1D1B685B78EE
:100F7000042B28D03B1D1B685B78032B23D03B1D23
:100F80001B685B78052B1ED03B1D1B685B78062B0E
:100F900019D03B1D1B685B78102B14D03B1D1B68C0
:100FA0005B78112B0FD03B1D1B685B78462B0AD05A
:100FB0003B1D1B685B78452B05D03B1D1B685B7890
:100FC000442B40F0FE803B1D1B685A7807F10C0350
:100FD000DA7007F10C0304221A803B1D1B685B7852
:100FE000032B0ED03B1D1B685B78012B09D03B1DEA
:100FF0001B685B78042B04D03B1D1B685B78022BBD
:1010000031D13B1D1B681B799BB205339AB207F1A6
:101010000C031A803B1D1B681A7907F10C031A7127
:101020000023A7F8163112E0B7F81621B7F81631E9
:101030000333391D09680A44117A07F10C0213447D
:101040000A469A70B7F816310133A7F816313B1DDE
:101050001B681B799BB2B7F816219A4203D2B7F8E6
:101060001631FC2BE0D93B1D1B685B78052B04D0A7
:101070003B1D1B685B78062B1FD107F10C03082270
:101080001A803B1D1B685B881B0A9BB2DAB207F112
:101090000C031A713B1D1B685B88DAB207F10C0365
:1010A0005A713B1D1B681A7A07F10C039A713B1D9C
:1010B0001B685A7A07F10C03DA713B1D1B685B78D9
:1010C0000F2B04D03B1D1B685B78102B23D107F13D
:1010D0000C0308221A803B1D1B685B881B0A9BB20D
:1010E000DAB207F10C031A713B1D1B685B88DAB298
:1010F00007F10C035A713B1D1B68DB881B0A9BB26E
:10110000DAB207F10C039A713B1D1B68DB88DAB277
:1011100007F10C03DA713B1D1B685B78112B2BD197
:101120003B1D1B681B7A9BB205339AB207F10C0377
:101130001A800023A7F8163112E0B7F81621B7F885
:1011400016310233391D09680A44117A07F10C027D
:1011500013440A469A70B7F816310133A7F81631CE
:10116000B7F816213B1D1B681B7A01339A4203DA3C
:10117000B7F81631FF2BE0D93B1D1B685B78462B77
:1011800009D107F10C0305221A803B1D1B681A7A4E
:1011900007F10C031A713B1D1B685B78442B29D1A6
:1011A00007F10C0306221A803B1D1B681A7A07F10F
:1011B0000C031A713B1D1B685A7A07F10C035A7114
:1011C00018E0FB1C1B78002B02D1FB1C01221A70BB
:1011D00007F10C0305221A803B1D1B685B7863F046
:1011E0007F03DAB207F10C03DA7007F10C03FA1C83
:1011F00012781A7107F10C031846FFF717FE034621
:10120000A7F8143107F10C031B88023BB7F814212F
:10121000D1B207F10C0213440A469A70B7F81431A0
:101220001B0A9AB207F10C031B88013BD1B207F1EC
:101230000C0213440A469A7007F10C031846FFF794
:1012400075FD0346184607F58C77BD4680BD000046
:1012500080B483B000AF0346FB71FB7903F01F033A
:10126000012202FA03F1054A97F907305B0942F8B7
:10127000231000BF0C37BD4680BC704700E100E082
:1012800080B586B002AF0121204801F047FC002163
:101290001E4801F043FC0123009301230222032195
:1012A000182000F017FB01230093012302220321E1
:1012B000192000F00FFB01214FF4001001F0EAFEAD
:1012C0000421182000F0A2FB0421192000F09EFB4D
:1012D0004FF480637B814FF48043BB814CF25033E9
:1012E0003B604BF6FF73FB800023BB8000233B81F8
:1012F0003B461946054801F0FBF90121034801F07E
:101300001DFB00BF1037BD4680BD00BF005400402C
:1013100080B586B002AF322000F0C0FBFFF7B0FF0F
:1013200000230093002301220021152000F0D2FAAF
:1013300000230093002301220021172000F0CAFAA5
:101340003B1D184602F0B6F80121022001F0A2FE72
:101350000023FB8047F6FF43BB8042F20F73BB6064
:101360003B1D19460E4801F0F9FF01210C4802F01F
:1013700027FB012201210A4802F0B6F901210848A1
:1013800002F0AEF81D20FFF763FF00F00BF800F04D
:1013900023F800F0F3F800BF1037BD4680BD00BF52
:1013A0000004004080B500AF80220021094800F011
:1013B00027FA0221074800F051FA8021054800F081
:1013C0004DFA0021034800F049FA024800F072FA91
:1013D00000BF80BD0054004080B500AF80220021D6
:1013E000094800F00DFA0221074800F037FA002101
:1013F000054800F033FA0021034800F02FFA0248B4
:1014000000F058FA00BF80BD0054004080B400AF27
:10141000024B1B881846BD4680BC7047360400202E
:1014200080B582B000AF00237B6001211F4801F02E
:1014300039FB802200211D4800F0E2F901211B4800
:1014400000F00CFA142000F029FB8022012117483B
:1014500000F0D6F9154800F017FA03461B027B602E
:101460000021124801F01EFB104800F00DFA03465F
:101470001A467B6813447B600C4800F01BFA7B68BB
:10148000642202FB03F37B607A6813469B001344DB
:101490005B007B607B681B0C7B607B689AB2044BB3
:1014A0001A8000BF0837BD4680BD00BF0054004011
:1014B0003604002080B400AF034BB3F90030184667
:1014C000BD4680BC704700BF3404002080B582B0A8
:1014D00000AF00237B600121264801F0E3FA80225F
:1014E0000021244800F08CF90021224800F0B6F9D0
:1014F000204800F0DFF9142000F0D0FA802201210A
:101500001C4800F07DF91B4800F0BEF903461B02A1
:101510007B600021174801F0C5FA164800F0B4F9C5
:1015200003461A467B6813447B60124800F0C2F9F8
:101530007A6813469B0013445A0113447B607A680F
:1015400013469B0013445B007B607B681B0C7B6035
:101550007B681AB2084B1A80074BB3F900309BB274
:10156000A3F5C8739BB21AB2034B1A8000BF0837A9
:10157000BD4680BD005400403404002080B582B0D8
:1015800000AF00237B60152000F000FA052000F07A
:1015900085FA152000F0DEF9642000F07FFA1720AC
:1015A00000F0F4F9052000F079FA0121334801F048
:1015B00079FAB4220021314800F022F900212F48A5
:1015C00000F04CF9B42201212C4800F019F9002157
:1015D0002A4801F067FA294800F056F903467B6073
:1015E000264800F067F9052000F058FAB4220021DF
:1015F000224800F005F9F421204800F02FF91F4897
:1016000000F058F9642000F049FA01211B4801F06C
:1016100049FAB4220021194800F0F2F800211748D5
:1016200000F01CF9B4220121144800F0E9F800216F
:10163000124801F037FA114800F026F903467B60A2
:101640000E4800F037F901210C4801F02BFAB422C2
:1016500000210A4800F0D4F80121084800F0FEF803
:101660001821064800F0FAF8044800F023F9052094
:1016700000F014FA00BF0837BD4680BD005400409A
:1016800080B582B000AF0023FB710121124801F048
:1016900009FAB4220021104800F0B2F800210E48E7
:1016A00000F0DCF8B42201210B4800F0A9F8002179
:1016B000094801F0F7F9084800F0E6F80346FB7125
:1016C000054800F0F7F8FB7903F00803DBB2184691
:1016D0000837BD4680BD00BF0054004080B400AF55
:1016E000024B1B881846BD4680BC7047380400205A
:1016F00080B582B000AF0023FB800121164801F0C5
:10170000D1F9B4220021144800F07AF802211248DD
:1017100000F0A4F8B42201210F4800F071F80E483F
:1017200000F0B2F803469BB21B02FB8000210A487E
:1017300001F0B8F9084800F0A7F803469AB2FB8810
:101740001344FB80044800F0B5F8044AFB8813807A
:1017500000BF0837BD4680BD00540040380400205B
:1017600080B500AFFFF7B2FEFFF75AFEFFF7C0FFEC
:1017700000BF80BD80B500AFFFF782FF0346002B9E
:1017800003D0FFF7EDFF012300E00023184680BDE2
:1017900080B400AF054B1B78002B02D1034B012214
:1017A0001A7000BFBD4680BC704700BF3A040020DD
:1017B00080B400AF024B1B781846BD4680BC704712
:1017C0003A04002080B400AF034B00221A7000BF1F
:1017D000BD4680BC704700BF3A04002080B582B08F
:1017E00000AF7860396000BF3968786801F050FA5E
:1017F0000346002BF8D000BF0837BD4680BD00006F
:1018000080B582B000AF78600B46FB701346BB70AA
:101810000121786801F0CEF80D497868FFF7DEFF06
:10182000FA78BB781946786801F0B6F9FB78002B96
:1018300003D108497868FFF7D1FFFB78012B03D16A
:1018400005497868FFF7CAFF00BF0837BD4680BD6D
:1018500001000300820007000200030080B582B08F
:1018600000AF78600B46FB70FB781946786801F092
:10187000CDF904497868FFF7B1FF00BF0837BD46CE
:1018800080BD00BF8400070080B584B000AF7860E1
:101890000023FB7306497868FFF7A0FF786801F022
:1018A000D7F90346FB73FB7B18461037BD4680BD56
:1018B0004000030080B582B000AF786001217868F5
:1018C00001F0B4F8142000F0E9F800BF0837BD4675
:1018D00080BD000090B585B000AF044608461146B3
:1018E0001A462346FB710346BB710B467B711346B8
:1018F0003B71FB791B09DBB203F00F03012202FAF3
:1019000003F30121184601F051FBFB7903F00F03AB
:10191000012202FA03F3BB60BB797B737B793B73D3
:101920003B79BB7397F82030FB73FB791B09DBB263
:1019300003F00F03064A52F8233007F1080211465C
:10194000184600F0A7FC00BF1437BD4690BD00BF8D
:101950000004002080B483B000AF0346FB71FB7924
:1019600003F00F03012202FA03F1FB791B09DBB23A
:1019700003F00F03044A52F823308AB21A8300BFDF
:101980000C37BD4680BC70470004002080B483B093
:1019900000AF0346FB71FB7903F00F03012202FA4B
:1019A00003F1FB791B09DBB203F00F03044A52F881
:1019B00023308AB25A8300BF0C37BD4680BC7047C3
:1019C0000004002080B483B000AF0346FB71FB79B4
:1019D0001B09DBB203F00F030B4A52F823301B8ABA
:1019E0009BB21A46FB7903F00F0342FA03F303F0AC
:1019F0000103002B01D0012300E0002318460C371F
:101A0000BD4680BC704700BF0004002080B582B096
:101A100000AF03460A46FB711346BB71FB791B09F5
:101A2000DBB203F00F03084A52F82300FB799BB2A4
:101A300003F00F039BB2BA79194600F049FD00BFCD
:101A40000837BD4680BD00BF0004002080B582B0CD
:101A500000AF0346FB800121202001F01BFB0E4B51
:101A60001F221A85FB885A1E0B4BDA620A4B012291
:101A70009A82094B09221A80074B00225A6200BF42
:101A8000054B1B889BB203F00103002BF8D100BF6C
:101A90000837BD4680BD00BF0014004080B582B04D
:101AA00000AF0346FB800121202001F0F3FA0E4B2A
:101AB00047F6FF421A85FB885A1E0B4BDA620A4B27
:101AC00001229A82084B09221A80074B00225A628F
:101AD00000BF054B1B889BB203F00103002BF8D11C
:101AE00000BF0837BD4680BD0014004080B582B0FD
:101AF00000AF78607B68B3F5E06F13D07B68B3F517
:101B0000C06F0FD07B68B3F5A06F0BD07B68B3F5C7
:101B1000806F07D07B68B3F5407F03D07A210748F8
:101B2000FEF764FD064A7B6843F0BF6343F400336D
:101B3000D36000BF0837BD4680BD00BFA049000884
:101B400000ED00E080B584B000AF78600023FB7347
:101B50000023BB730F237B737B68DB78002B07D0DC
:101B60007B68DB78012B03D08E213248FEF73EFDE7
:101B70007B685B780F2B03D98F212E48FEF736FD4B
:101B80007B689B780F2B03D990212A48FEF72EFD06
:101B90007B68DB78002B39D0274BDB68DB431B0AE3
:101BA000DBB203F00703FB73FB7BC3F10403BB73DE
:101BB0007A7BFB7B42FA03F37B737B685B781A4684
:101BC000BB7B02FA03F3FB737B689A787B7B134041
:101BD000DAB2FB7B1343FB73FB7B1B01FB73174ADE
:101BE0007B681B781344FA7B83F800237B681B789F
:101BF00003F01F0311497A6812785209D2B21046D5
:101C0000012202FA03F341F820300FE07B681B78D1
:101C100003F01F0309497A6812785209D2B21046BC
:101C200001229A4000F1200341F8232000BF103721
:101C3000BD4680BDA049000800ED00E000E100E0E5
:101C400080B582B000AF78607B68664A93422FD03F
:101C50007B68654A93422BD07B68644A934227D0C5
:101C60007B68634A934223D07B68624A93421FD0C9
:101C70007B68614A93421BD07B68604A934217D0CD
:101C80007B685F4A934213D07B685E4A93420FD0D1
:101C90007B685D4A93420BD07B685C4A934207D0D5
:101CA0007B685B4A934203D093215A48FEF79EFC1F
:101CB0007B681A684FF6FE7313407A6813607B687E
:101CC00000221A607B6800225A607B6800229A60BA
:101CD0007B680022DA607B68424A934206D14E4B11
:101CE0005B684D4A43F00F03536077E07B683E4AE0
:101CF000934206D1484B5B68474A43F0F003536078
:101D00006CE07B68394A934206D1434B5B68424A98
:101D100043F47063536061E07B68354A934206D1B7
:101D20003D4B5B683C4A43F47043536056E07B682C
:101D3000304A934206D1384B5B68374A43F47023EC
:101D400053604BE07B682C4A934206D1324B5B6870
:101D5000314A43F47003536040E07B68274A934262
:101D600006D12D4B5B682C4A43F07063536035E01D
:101D70007B68234A934206D1284B5B68274A43F08D
:101D80000F0353602AE07B681E4A934206D1234B1F
:101D90005B68224A43F0F00353601FE07B681A4AF5
:101DA000934206D11D4B5B681C4A43F47063536039
:101DB00014E07B68154A934206D1184B5B68174ABA
:101DC00043F47043536009E07B68114A934205D1A4
:101DD000124B5B68114A43F47023536000BF08370D
:101DE000BD4680BD086002401C6002403060024079
:101DF00044600240586002406C60024080600240D3
:101E0000086402401C6402403064024044640240A2
:101E100058640240BC49000800600240006402406F
:101E200080B584B000AF786039600023FB607B68C8
:101E3000764A93422FD07B68754A93422BD07B68B9
:101E4000744A934227D07B68734A934223D07B68BD
:101E5000724A93421FD07B68714A93421BD07B68C1
:101E6000704A934217D07B686F4A934213D07B68C5
:101E70006E4A93420FD07B686D4A93420BD07B68C9
:101E80006C4A934207D07B686B4A934203D0F3219C
:101E90006A48FEF7ABFB3B689B68102B07D03B689A
:101EA0009B68002B03D0F4216448FEF79FFB3B683E
:101EB000DB68002B04D03B68DB68B3F5803F03D3BD
:101EC000F5215E48FEF792FB3B681B69402B07D06B
:101ED0003B681B69002B03D0F6215848FEF786FBB0
:101EE0003B685B69802B07D03B685B69002B03D0A4
:101EF000F7215248FEF77AFB3B689B69002B0DD017
:101F00003B689B69B3F5807F08D03B689B69B3F55C
:101F1000007F03D0F8214948FEF768FB3B68DB6986
:101F2000002B0DD03B68DB69B3F5806F08D03B68B0
:101F3000DB69B3F5006F03D0F9214048FEF756FB8B
:101F40003B681B6A202B07D03B681B6A002B03D021
:101F5000FA213A48FEF74AFB3B685B6AB3F5405FFB
:101F600011D03B685B6AB3F5005F0CD03B685B6ADD
:101F7000B3F5805F07D03B685B6A002B03D0FB2181
:101F80002E48FEF733FB3B689B6AB3F5804F07D0C2
:101F90003B689B6A002B03D0FC212848FEF726FBF8
:101FA0007B681B68FB60FB6823F4FF4323F070032E
:101FB000FB603B689A683B681B6A1A433B681B6975
:101FC0001A433B685B691A433B689B691A433B6849
:101FD000DB691A433B685B6A1A433B689B6A13439D
:101FE000FA681343FB607B68FA681A603B68DA683A
:101FF0007B685A603B681A687B689A603B685A68DD
:102000007B68DA6000BF1037BD4680BD08600240C3
:102010001C60024030600240446002405860024050
:102020006C60024080600240086402401C64024010
:10203000306402404464024058640240BC490008D5
:1020400080B483B000AF78607B6800221A607B6840
:1020500000225A607B6800229A607B680022DA6066
:102060007B6800221A617B6800225A617B6800222B
:102070009A617B680022DA617B6800221A627B68C1
:1020800000225A627B6800229A6200BF0C37BD466C
:1020900080BC704780B582B000AF78600B46FB70A3
:1020A0007B682A4A934230D07B68294A93422CD0DD
:1020B0007B68284A934228D07B68274A934224D0E1
:1020C0007B68264A934220D07B68254A93421CD0E5
:1020D0007B68244A934218D07B68234A934214D0E9
:1020E0007B68224A934210D07B68214A93420CD0ED
:1020F0007B68204A934208D07B681F4A934204D0F1
:1021000040F24D111D48FEF771FAFB78002B07D005
:10211000FB78012B04D04FF4A7711848FEF766FA3C
:10212000FB78002B06D07B681B6843F001027B68BC
:102130001A6006E07B681A684FF6FE7313407A68EF
:10214000136000BF0837BD4680BD00BF0860024075
:102150001C6002403060024044600240586002400F
:102160006C60024080600240086402401C640240CF
:10217000306402404464024058640240BC49000894
:1021800080B582B000AF78600B467B807B681D4ACB
:10219000934230D07B681C4A93422CD07B681B4A08
:1021A000934228D07B681A4A934224D07B68194A0C
:1021B000934220D07B68184A93421CD07B68174A10
:1021C000934218D07B68164A934214D07B68154A14
:1021D000934210D07B68144A93420CD07B68134A18
:1021E000934208D07B68124A934204D04FF4C471E2
:1021F0001048FEF7FBF97A887B685A6000BF083701
:10220000BD4680BD086002401C6002403060024054
:1022100044600240586002406C60024080600240AE
:10222000086402401C64024030640240446402407E
:1022300058640240BC49000880B582B000AF7860A5
:102240007B6803F07043002B04D07A680D4B134079
:10225000002B02D17B68002B04D140F243310A48A5
:10226000FEF7C4F97B6803F08053002B03D1074AC3
:102270007B68536002E0064A7B68536000BF083702
:10228000BD4680BD0000F0EFBC4900080060024080
:102290000064024080B586B000AF786039600023EA
:1022A0007B6100233B610023FB600023BB607B68F4
:1022B0007E4A93421FD07B687D4A93421BD07B6845
:1022C0007C4A934217D07B687B4A934213D07B6849
:1022D0007A4A93420FD07B68794A93420BD07B684D
:1022E000784A934207D07B68774A934203D0B9215A
:1022F0007648FEF77BF93B681B68002B03D1BA21B7
:102300007248FEF773F93B681B79002B0FD03B68CE
:102310001B79012B0BD03B681B79022B07D03B6844
:102320001B79032B03D0BB216848FEF75FF93B689C
:10233000DB79002B0BD03B68DB79012B07D03B68A6
:10234000DB79022B03D0BC216048FEF74FF9002354
:102350007B61A2E001227B6902FA03F33B613B68E7
:102360001B683A691340FB60FA683B699A4240F087
:1023700091807B681B68BB607B695B00032202FA6B
:1023800003F3DB43BA681340BB603B681B791A4612
:102390007B695B0002FA03F3BA681343BB607B6896
:1023A000BA681A603B681B79012B03D03B681B7924
:1023B000022B55D13B685B79002B0FD03B685B79D2
:1023C000012B0BD03B685B79022B07D03B685B7914
:1023D000032B03D0D3213D48FEF708F97B689B68A7
:1023E000BB607B695B00032202FA03F3DB43BA683C
:1023F0001340BB603B685B791A467B695B0002FA5D
:1024000003F3BA681343BB607B68BA689A603B68A1
:102410009B79002B07D03B689B79012B03D0DD21F2
:102420002A48FEF7E3F87B689B889BB2BB607B6918
:102430009BB21A4601239340DB43BA681340BB604A
:102440003B689B791A467B699BB202FA03F39BB205
:102450001A46BB681343BB60BB689AB27B689A801C
:102460007B68DB68BB607B699BB25B00032202FA7E
:1024700003F3DB43BA681340BB603B68DB791A4661
:102480007B695B0002FA03F3BA681343BB607B68A5
:10249000BA68DA607B6901337B617B690F2B7FF659
:1024A00059AF00BF1837BD4680BD00BF00000240D5
:1024B0000004024000080240000C024000100240EC
:1024C0000014024000180240001C0240E0490008CD
:1024D00080B584B000AF78600B467B8013467B707C
:1024E0000023FB600023BB607B68784A934220D0C6
:1024F0007B68774A93421CD07B68764A934218D017
:102500007B68754A934214D07B68744A934210D01A
:102510007B68734A93420CD07B68724A934208D01E
:102520007B68714A934204D040F221216F48FEF744
:102530005DF87B88002B31D07B88012B2ED07B88E7
:10254000022B2BD07B88032B28D07B88042B25D013
:102550007B88052B22D07B88062B1FD07B88072BFE
:102560001CD07B88082B19D07B88092B16D07B8840
:102570000A2B13D07B880B2B10D07B880C2B0DD013
:102580007B880D2B0AD07B880E2B07D07B880F2BE6
:1025900004D040F222215548FEF728F87B78002B22
:1025A00058D07B78002B55D07B78002B52D07B788D
:1025B000002B4FD07B78002B4CD07B78002B49D060
:1025C0007B78012B46D07B78022B43D07B78022B83
:1025D00040D07B78032B3DD07B78032B3AD07B789F
:1025E000032B37D07B78042B34D07B78042B31D06D
:1025F0007B78052B2ED07B78052B2BD07B78072B77
:1026000028D07B78072B25D07B78072B22D07B78AE
:102610000A2B1FD07B780B2B1CD07B780E2B19D06C
:102620007B78022B16D07B78062B13D07B78082B77
:1026300010D07B78082B0DD07B780C2B0AD07B78C0
:102640000C2B07D07B780F2B04D040F22321274896
:10265000FDF7CCFF7A787B8803F007039B0002FA32
:1026600003F3FB607B88DB089BB21A467B68083269
:1026700053F822207B8803F007039B000F2101FA07
:1026800003F3DB437988C90889B2084602EA0301EB
:102690007B6800F1080243F822107B88DB089BB2BC
:1026A0001A467B68083253F82230FA681343BB603D
:1026B0007B88DB089BB21A467B680832B96843F80E
:1026C000221000BF1037BD4680BD00BF0000024091
:1026D0000004024000080240000C024000100240CA
:1026E0000014024000180240001C0240E0490008AB
:1026F00080B58AB000AF786039600023FB84002386
:102700007B840423BB84854BFB617B68844A9342B2
:1027100007D07B68834A934203D0A2218248FDF709
:1027200065FF3B681B68002B04D03B681B687F4A31
:10273000934203D9A3217C48FDF758FF3B689B884F
:10274000002B0BD03B689B88022B07D03B689B88F3
:102750000A2B03D0A4217448FDF748FF3B68DB88AF
:10276000B3F5804F09D03B68DB884BF6FF7293428C
:1027700003D0A5216C48FDF739FF3B681B89B3F5F1
:10278000806F03D3A6216848FDF730FF3B685B8963
:10279000B3F5806F07D03B685B89002B03D0A7217E
:1027A0006148FDF723FF3B689B89B3F5804F08D054
:1027B0003B689B89B3F5404F03D0A8215A48FDF7E9
:1027C00015FF7B689B88FB84FB8C23F03F03FB8415
:1027D00007F10C03184600F00FFB7B69FB61FB69F6
:1027E000534AA2FB03239B0C7B84FA8C7B8C134300
:1027F000FB847B68FA8C9A807B681B889BB223F0F1
:1028000001039AB27B681A800023FB843B681B6833
:10281000484A934215D83B681B685B00FA69B2FBD3
:10282000F3F3BB84BB8C032B01D80423BB84FA8C49
:10283000BB8C1343FB847B8C01339AB27B681A8474
:1028400040E03B68DB884BF6FF72934209D13B685E
:102850001A6813465B001344FA69B2FBF3F3BB84B6
:102860000EE03B681A6813469B0013449A00134419
:10287000FA69B2FBF3F3BB84BB8C43F48043BB84A3
:10288000BB8CC3F30B03002B03D1BB8C43F00103C0
:10289000BB84BA8CFB8C13439BB26FEA43436FEA51
:1028A0005343FB847B8C4FF4967202FB03F3224A62
:1028B00082FB03129211DB17D31A9BB201339AB237
:1028C0007B681A847B68FA8C9A837B681B889BB22E
:1028D00043F001039AB27B681A807B681B88FB84F3
:1028E000FB8C23F4816323F00203FB843B689A880A
:1028F0003B685B8913439AB2FB8C1343FB847B6870
:10290000FA8C1A803B689A893B681B8913439AB2F8
:102910007B681A8100BF2837BD4680BD00127A004F
:102920000054004000580040044A0008801A060085
:1029300083DE1B43A0860100D34D621080B582B0B8
:1029400000AF78600B46FB707B68174A934208D053
:102950007B68164A934204D040F223111448FDF7D5
:1029600045FEFB78002B07D0FB78012B04D04FF4F9
:1029700092710F48FDF73AFEFB78002B08D07B6878
:102980001B889BB243F001039AB27B681A8007E070
:102990007B681B889BB223F001039AB27B681A8084
:1029A00000BF0837BD4680BD0054004000580040BD
:1029B000044A000880B582B000AF78600B46FB7017
:1029C0007B68174A934208D07B68164A934204D02A
:1029D00040F23B111448FDF709FEFB78002B07D0AD
:1029E000FB78012B04D04FF49E710F48FDF7FEFDDC
:1029F000FB78002B08D07B681B889BB243F4807364
:102A00009AB27B681A8007E07B681B889BB223F42C
:102A100080739AB27B681A8000BF0837BD4680BDBC
:102A20000054004000580040044A000880B582B0BD
:102A300000AF78600B46FB707B68174A934208D062
:102A40007B68164A934204D040F253111448FDF7B4
:102A5000CDFDFB78002B07D0FB78012B04D04FF481
:102A6000AA710F48FDF7C2FDFB78002B08D07B68E8
:102A70001B889BB243F400739AB27B681A8007E00C
:102A80007B681B889BB223F400739AB27B681A8020
:102A900000BF0837BD4680BD0054004000580040CC
:102AA000044A000880B582B000AF78600B46FB7026
:102AB0007B68174A934208D07B68164A934204D039
:102AC00040F26B111448FDF791FDFB78002B07D005
:102AD000FB78012B04D04FF4B6710F48FDF786FD4B
:102AE000FB78002B08D07B681B889BB243F4806383
:102AF0009AB27B681A8007E07B681B889BB223F43C
:102B000080639AB27B681A8000BF0837BD4680BDDB
:102B10000054004000580040044A000880B582B0CC
:102B200000AF78600B46FB707B68184A934208D070
:102B30007B68174A934204D040F2CD111548FDF747
:102B400055FDFB78002B07D0FB78012B04D04FF408
:102B5000E7711048FDF74AFDFB78002B0AD07B682F
:102B60001B889BB26FEA43436FEA53439AB27B6878
:102B70001A8007E07B681B889BB2C3F30E039AB2EE
:102B80007B681A8000BF0837BD4680BD00540040F6
:102B900000580040044A000880B582B000AF786059
:102BA0000B46FB701346BB707B68154A934208D0F6
:102BB0007B68144A934204D04FF413711248FDF716
:102BC00015FDBB78002B07D0BB78012B04D040F259
:102BD0004D210D48FDF70AFDBB78002B04D0FB7892
:102BE00043F00103FB7003E0FB7823F00103FB706B
:102BF000FB789AB27B681A8200BF0837BD4680BD59
:102C00000054004000580040044A000880B582B0DB
:102C100000AF78600B46FB707B680A4A934208D08D
:102C20007B68094A934204D040F276210748FDF7B9
:102C3000DDFCFB789AB27B681A8200BF0837BD467C
:102C400080BD00BF0054004000580040044A000806
:102C500080B582B000AF78607B680A4A934208D0A2
:102C60007B68094A934204D040F283210748FDF76C
:102C7000BDFC7B681B8A9BB2DBB218460837BD4699
:102C800080BD00BF0054004000580040044A0008C6
:102C900080B586B000AF7860396000233B610023C7
:102CA000FB600023BB600023FB757B68404A9342B6
:102CB00008D07B683F4A934204D040F229413E4805
:102CC000FDF794FC3B683D4A93424FD03B68B3F11B
:102CD000021F4BD03B683A4A934247D03B68B3F55A
:102CE000020F43D03B68B3F5901F3FD03B68354A95
:102CF00093423BD03B68344A934237D03B68334AD7
:102D0000934233D03B68324A93422FD03B68314ADA
:102D100093422BD03B68304A934227D03B68102B1C
:102D200024D03B682D4A934220D03B682C4A9342E2
:102D30001CD03B682B4A934218D03B682A4A9342E6
:102D400014D03B68294A934210D03B68284A9342EA
:102D50000CD03B68274A934208D03B68B3F5806F9C
:102D600004D040F22A411448FDF740FC7B689B8A5E
:102D70009BB2FB607B681B8B9BB2BB60BB681B0478
:102D8000BB60FA68BB68134323F07F433B613A6939
:102D90003B6813403A689A4202D10123FB7501E077
:102DA0000023FB75FB7D18461837BD4680BD00BF6C
:102DB0000054004000580040044A00088200060009
:102DC00080008600400002004000820040001200A7
:102DD00084000600840086008400160001000300C1
:102DE0008200070002000300400003008400070087
:102DF000800007000800030080B489B000AF78604D
:102E00000023FB610023BB6100237B6100233B6146
:102E10000023FB600023BB605F4B9B6803F00C0347
:102E2000FB61FB690C2B65D801A252F823F000BFAF
:102E3000652E0008F52E0008F52E0008F52E000876
:102E4000852E0008F52E0008F52E0008F52E000846
:102E50008D2E0008F52E0008F52E0008F52E00082E
:102E6000952E00084C4B5B685B0B03F00703BB60BF
:102E7000BB6801334FF4004202FA03F31A467B6841
:102E80001A6047E07B68454A1A6043E07B68444A21
:102E90001A603FE0404B9B6803F47013BB613E4BEC
:102EA0009B6803F440037B61BB699B0C3D4AD35C88
:102EB000DBB2BB617B699B0D01337B61364B9B6849
:102EC00003F480333B613B69002B09D1BB69334A72
:102ED00002FB03F27B69B2FBF3F27B681A6019E034
:102EE000BB692F4A02FB03F27B69B2FBF3F27B68FA
:102EF0001A600FE0284B5B685B0B03F00703BB60B5
:102F0000BB6801334FF4004202FA03F31A467B68B0
:102F10001A6000BF204B9B6803F0F003FB61FB6964
:102F20001B09FB61204AFB6913441B78DBB2FB6081
:102F30007B681A68FB68DA407B685A60164B9B68AE
:102F400003F4E063FB61FB691B0AFB61164AFB6942
:102F500013441B78DBB2FB607B685A68FB68DA407D
:102F60007B689A600C4B9B6803F46053FB61FB69C0
:102F7000DB0AFB610C4AFB6913441B78DBB2FB6084
:102F80007B685A68FB68DA407B68DA6000BF2437E8
:102F9000BD4680BC704700BF003802400024F400EA
:102FA00000127A00140400202004002080B582B0B2
:102FB00000AF78600B46FB707A68164B1340002B0D
:102FC00002D17B68002B04D140F256411248FDF734
:102FD0000DFBFB78002B07D0FB78012B04D040F2CF
:102FE00057410D48FDF702FBFB78002B06D00B4B39
:102FF000DA690A497B681343CB6106E0074BDA695B
:103000007B68DB4305491340CB6100BF0837BD46F1
:1030100080BD00BF006FFFB4284A0008003802409E
:1030200080B582B000AF78600B46FB707B6823F4FC
:10303000B44323F01D03002B02D17B68002B04D185
:1030400040F279411148FDF7D1FAFB78002B07D007
:10305000FB78012B04D040F27A410C48FDF7C6FA08
:10306000FB78002B06D00A4B1A6A09497B68134388
:103070000B6206E0064B1A6A7B68DB430449134087
:103080000B6200BF0837BD4680BD00BF284A00085C
:103090000038024080B582B000AF78600B46FB700C
:1030A0007A68164B1340002B02D17B68002B04D1A9
:1030B0004FF495611248FDF799FAFB78002B07D081
:1030C000FB78012B04D040F2A9410D48FDF78EFAA0
:1030D000FB78002B06D00B4B5A6A0A497B681343D6
:1030E0004B6206E0074B5A6A7B68DB430549134095
:1030F0004B6200BF0837BD4680BD00BFC035014FE1
:10310000284A00080038024080B582B000AF7860DD
:103110000B46FB707B6823F4B44323F01D03002BA4
:1031200002D17B68002B04D140F2EE411148FDF73B
:103130005DFAFB78002B07D0FB78012B04D040F21E
:10314000EF410C48FDF752FAFB78002B06D00A4BF2
:103150005A6909497B6813434B6106E0064B5A697B
:103160007B68DB43044913404B6100BF0837BD4611
:1031700080BD00BF284A00080038024080B582B0F8
:1031800000AF78600B46FB707A68164B1340002B3B
:1031900002D17B68002B04D140F21A511248FDF78E
:1031A00025FAFB78002B07D0FB78012B04D040F2E6
:1031B0001B510D48FDF71AFAFB78002B06D00B4B7C
:1031C0009A690A497B6813438B6106E0074B9A6949
:1031D0007B68DB43054913408B6100BF0837BD4660
:1031E00080BD00BFC035014F284A000800380240AA
:1031F00080B582B000AF78607B68B3F1804F23D098
:103200007B684D4A93421FD07B684C4A93421BD047
:103210007B684B4A934217D07B684A4A934213D04B
:103220007B68494A93420FD07B68484A93420BD04F
:103230007B68474A934207D07B68464A934203D053
:10324000BA214548FDF7D2F97B68B3F1804F08D128
:1032500001210120FFF792FF00210120FFF78EFFDF
:1032600066E07B68344A934208D101210220FFF7CF
:1032700085FF00210220FFF781FF59E07B682F4A7C
:10328000934208D101210420FFF778FF0021042098
:10329000FFF774FF4CE07B68294A934208D1012173
:1032A0000820FFF76BFF00210820FFF767FF3FE0D2
:1032B0007B68244A934208D101211020FFF75EFF6A
:1032C00000211020FFF75AFF32E07B681E4A93422C
:1032D00008D101212020FFF751FF00212020FFF716
:1032E0004DFF25E07B68194A934208D10121042053
:1032F000FFF70AFF00210420FFF706FF18E07B68B4
:10330000134A934208D101210820FFF7FDFE002156
:103310000820FFF7F9FE0BE07B680E4A934207D1C5
:1033200001211020FFF7F0FE00211020FFF7ECFE36
:1033300000BF0837BD4680BD0004004000080040C3
:10334000000C004000100040001400400008014044
:10335000000C0140001001404C4A000880B584B0C8
:1033600000AF786039600023FB817B68B3F1804F48
:1033700023D07B68464A93421FD07B68454A9342DC
:103380001BD07B68444A934217D07B68434A9342E0
:1033900013D07B68424A93420FD07B68414A9342E4
:1033A0000BD07B68404A934207D07B683F4A9342E8
:1033B00003D0FE213E48FDF719F93B685B88002BDE
:1033C00013D03B685B88102B0FD03B685B88202BA9
:1033D0000BD03B685B88402B07D03B685B88602B39
:1033E00003D0FF213248FDF701F93B681B89002B10
:1033F0000ED03B681B89B3F5807F09D03B681B89E1
:10340000B3F5007F04D04FF480712948FDF7EEF842
:103410007B681B88FB817B68B3F1804F0BD07B6896
:103420001B4A934207D07B681A4A934203D07B68B9
:10343000194A934208D1FB8923F07003FB813B6852
:103440005A88FB891343FB817B68144A93420CD052
:103450007B68134A934208D0FB8923F44073FB81B5
:103460003B681A89FB891343FB817B68FA891A80C0
:103470003B685A687B68DA623B681A887B681A8501
:103480007B6801229A8200BF1037BD4680BD00BF15
:103490000004004000080040000C00400010004004
:1034A0000014004000080140000C014000100140E1
:1034B0004C4A000880B483B000AF78607B684FF05E
:1034C000FF325A607B6800221A807B6800221A81D2
:1034D0007B6800225A8000BF0C37BD4680BC704715
:1034E00080B582B000AF78600B46FB707B68B3F1AB
:1034F000804F24D07B68234A934220D07B68224AA5
:1035000093421CD07B68214A934218D07B68204AA2
:10351000934214D07B681F4A934210D07B681E4AA6
:1035200093420CD07B681D4A934208D07B681C4AAA
:10353000934204D04FF408711A48FDF757F8FB780E
:10354000002B07D0FB78012B04D040F22121154835
:10355000FDF74CF8FB78002B08D07B681B889BB2EA
:1035600043F001039AB27B681A8007E07B681B88EE
:103570009BB223F001039AB27B681A8000BF083720
:10358000BD4680BD0004004000080040000C004023
:10359000001000400014004000080140000C0140F1
:1035A000001001404C4A000880B582B000AF78603E
:1035B00039607B68B3F1804F1CD07B68114A93421D
:1035C00018D07B68104A934214D07B680F4A93420C
:1035D00010D07B680E4A93420CD07B680D4A934210
:1035E00008D07B680C4A934204D040F283310B48E8
:1035F000FCF7FCFF7B683A685A6300BF0837BD469A
:1036000080BD00BF0004004000080040000C0040E6
:1036100000080140000C0140001001404C4A000825
:1036200080B584B000AF78600B467B8013463B804A
:103630000023FB817B68B3F1804F1CD07B68234A59
:10364000934218D07B68224A934214D07B68214A67
:10365000934210D07B68204A93420CD07B681F4A6B
:10366000934208D07B681E4A934204D040F2E15155
:103670001C48FCF7BBFF3B88012B07D03B88002B85
:1036800004D040F2E2511748FCF7B0FF7B880122DA
:1036900002FA03F3FB817B681B8C9AB2FB89DB4344
:1036A0009BB213409AB27B681A847B681B8C9AB2D7
:1036B00039887B8801FA03F39BB213439AB27B6883
:1036C0001A8400BF1037BD4680BD00BF0004004013
:1036D00000080040000C004000080140000C0140C0
:1036E000001001404C4A000880B582B000AF7860FD
:1036F0000B467B8013467B707B68B3F1804F24D0F0
:103700007B682B4A934220D07B682A4A93421CD084
:103710007B68294A934218D07B68284A934214D088
:103720007B68274A934210D07B68264A93420CD08C
:103730007B68254A934208D07B68244A934204D090
:1037400040F25E712248FCF751FF7A884FF6A07371
:103750001340002B02D17B88002B04D140F25F7113
:103760001B48FCF743FF7B78002B07D07B78012BAD
:1037700004D04FF4EC611648FCF738FF7B78002B3F
:1037800008D07B689B899AB27B8813439AB27B6886
:103790009A8109E07B689B899AB27B88DB439BB264
:1037A00013409AB27B689A8100BF0837BD4680BD3E
:1037B0000004004000080040000C004000100040E1
:1037C0000014004000080140000C014000100140BE
:1037D0004C4A000880B584B000AF78600B467B800F
:1037E0000023FB737B68B3F1804F24D07B682E4AA3
:1037F000934220D07B682D4A93421CD07B682C4A90
:10380000934218D07B682B4A934214D07B682A4A93
:10381000934210D07B68294A93420CD07B68284A97
:10382000934208D07B68274A934204D040F2A371A8
:103830002548FCF7DBFE7B88012B23D07B88022BFD
:1038400020D07B88042B1DD07B88082B1AD07B8846
:10385000102B17D07B88402B14D07B88B3F5007FCA
:1038600010D07B88B3F5806F0CD07B88B3F5006FE8
:1038700008D07B88B3F5805F04D040F2A471124871
:10388000FCF7B4FE7B681B8A9AB27B8813409BB21C
:10389000002B02D00123FB7301E00023FB73FB7BB1
:1038A00018461037BD4680BD0004004000080040A7
:1038B000000C0040001000400014004000080140CF
:1038C000000C0140001001404C4A000880B584B053
:1038D00000AF78600B467B800023FB730023BB8125
:1038E00000237B817B68B3F1804F24D07B682B4A17
:1038F000934220D07B682A4A93421CD07B68294A95
:10390000934218D07B68284A934214D07B68274A98
:10391000934210D07B68264A93420CD07B68254A9C
:10392000934208D07B68244A934204D040F2EA7163
:103930002248FCF75BFE7B88012B13D07B88022B8F
:1039400010D07B88042B0DD07B88082B0AD07B8875
:10395000102B07D07B88402B04D040F2EB71174826
:10396000FCF744FE7B681B8A9AB27B881340BB81BC
:103970007B689B899AB27B8813407B81BB89002B33
:1039800005D07B89002B02D00123FB7301E00023CB
:10399000FB73FB7B18461037BD4680BD000400401A
:1039A00000080040000C00400010004000140040DF
:1039B00000080140000C0140001001404C4A000882
:1039C00080B582B000AF78600B467B807B68B3F136
:1039D000804F24D07B681D4A934220D07B681C4ACC
:1039E00093421CD07B681B4A934218D07B681A4ACA
:1039F000934214D07B68194A934210D07B68184ACE
:103A000093420CD07B68174A934208D07B68164AD1
:103A1000934204D040F611011448FCF7E7FD7A8880
:103A20004FF6A0731340002B02D17B88002B04D1EA
:103A300040F612010D48FCF7D9FD7B88DB439AB2B2
:103A40007B681A8200BF0837BD4680BD0004004075
:103A500000080040000C004000100040001400402E
:103A600000080140000C0140001001404C4A0008D1
:103A700080B582B000AF78607B68324A934213D041
:103A80007B68314A93420FD07B68304A93420BD017
:103A90007B682F4A934207D07B682E4A934203D01B
:103AA000B0212D48FCF7A2FD7B68264A93420AD13B
:103AB00001214FF48040FFF727FB00214FF48040A5
:103AC000FFF722FB3AE07B681F4A93420AD10121AB
:103AD0004FF40030FFF752FB00214FF40030FFF7A6
:103AE0004DFB2BE07B68194A93420AD101214FF428
:103AF0008020FFF743FB00214FF48020FFF73EFBBF
:103B00001CE07B68124A93420AD101214FF4002045
:103B1000FFF734FB00214FF40020FFF72FFB0DE0EF
:103B20007B680C4A934209D101214FF48010FFF7C2
:103B300025FB00214FF48010FFF720FB00BF083762
:103B4000BD4680BD003801400044004000480040B0
:103B5000004C004000500040704A000880B58AB018
:103B600000AF7860396000237B6200233B62002352
:103B7000FB610023BB617B689B4A934213D07B6847
:103B80009A4A93420FD07B68994A93420BD07B6844
:103B9000984A934207D07B68974A934203D0E22128
:103BA0009648FCF723FD3B681B68002B04D03B685C
:103BB0001B68934A934203D9E3219048FCF716FD12
:103BC0003B689B88002B08D03B689B88B3F5805FDF
:103BD00003D0E4218948FCF709FD3B68DB88002B12
:103BE00012D03B68DB88B3F5805F0DD03B68DB8883
:103BF000B3F5005F08D03B68DB88B3F5405F03D0C6
:103C0000E5217E48FCF7F2FC3B681B89002B0DD0B8
:103C10003B681B89B3F5806F08D03B681B89B3F5FF
:103C2000C06F03D0E6217548FCF7E0FC3B685B8978
:103C30001A464FF6F3731340002B03D13B685B89A0
:103C4000002B03D1E7216D48FCF7D0FC3B689B8932
:103C5000002B12D03B689B89B3F5807F0DD03B6869
:103C60009B89B3F5007F08D03B689B89B3F5407F03
:103C700003D0E8216148FCF7B9FC3B689B89002B25
:103C80000FD07B68584A93420BD07B68574A9342C7
:103C900007D07B68564A934203D0ED215748FCF782
:103CA000A5FC7B681B8A9BB27B627B6A23F4405332
:103CB0007B623B68DB881A467B6A13437B627B6AC4
:103CC0009AB27B681A827B689B899BB27B627B6A13
:103CD00023F4B05323F00C037B623B689A883B6863
:103CE0001B8913439AB23B685B8913439BB21A4604
:103CF0007B6A13437B627B6A9AB27B689A817B689A
:103D00009B8A9BB27B627B6A23F440737B623B6835
:103D10009B891A467B6A13437B627B6A9AB27B68F3
:103D20009A8207F108031846FFF766F87B682E4A67
:103D3000934202D17B693B6201E03B693B627B6855
:103D40009B899BB21BB2002B0CDA3A6A13469B008C
:103D500013449A001A443B681B685B00B2FBF3F300
:103D6000FB610BE03A6A13469B0013449A001A4425
:103D70003B681B689B00B2FBF3F3FB61FB69214AC4
:103D8000A2FB03235B091B017B627B6A1B09642284
:103D900002FB03F3FA69D31ABB617B689B899BB270
:103DA0001BB2002B0CDABB69DB003233154AA2FBD5
:103DB00003235B0903F007037A6A13437B620BE07A
:103DC000BB691B0132330F4AA2FB03235B0903F0DB
:103DD0000F037A6A13437B627B6A9AB27B681A810B
:103DE00000BF2837BD4680BD003801400044004078
:103DF00000480040004C004000500040704A00085D
:103E000000093D001F85EB5180B483B000AF78609E
:103E10007B684FF416521A607B6800229A807B6898
:103E20000022DA807B6800221A817B680C225A818A
:103E30007B6800229A8100BF0C37BD4680BC70476A
:103E400080B582B000AF78600B46FB707B681D4A7E
:103E5000934214D07B681C4A934210D07B681B4A63
:103E600093420CD07B681A4A934208D07B68194A67
:103E7000934204D04FF4C8711748FCF7B7FBFB78A6
:103E8000002B07D0FB78012B04D040F2911112488F
:103E9000FCF7ACFBFB78002B08D07B689B899BB2BE
:103EA00043F400539AB27B689A8107E07B689B8950
:103EB0009BB223F400539AB27B689A8100BF083703
:103EC000BD4680BD0038014000440040004800402D
:103ED000004C004000500040704A000880B582B09D
:103EE00000AF78607B68114A934214D07B68104A17
:103EF000934210D07B680F4A93420CD07B680E4AE5
:103F0000934208D07B680D4A934204D040F22521A9
:103F10000B48FCF76BFB7B689B889BB2C3F30803E1
:103F20009BB218460837BD4680BD00BF003801402F
:103F30000044004000480040004C00400050004059
:103F4000704A000880B582B000AF78600B467B8075
:103F500013467B707B68254A934214D07B68244AC1
:103F6000934210D07B68234A93420CD07B68224A4C
:103F7000934208D07B68214A934204D040F23241F8
:103F80001F48FCF733FB7A884FF63F731340002B32
:103F900002D17B88002B04D140F233411848FCF752
:103FA00025FB7B78002B07D07B78012B04D040F2D7
:103FB00034411348FCF71AFB7B78002B08D07B6850
:103FC0009B8A9AB27B8813439AB27B689A8209E0F3
:103FD0007B689B8A9AB27B88DB439BB213409AB280
:103FE0007B689A8200BF0837BD4680BD003801401B
:103FF0000044004000480040004C00400050004099
:10400000704A000880B586B000AF78600B467B80B0
:1040100013467B7000233B610023FB600023BB60E1
:1040200000237B617B684C4A934214D07B684B4AE7
:10403000934210D07B684A4A93420CD07B68494A2D
:10404000934208D07B68484A934204D040F2B5417D
:104050004648FCF7CBFA7B88282B25D07B8840F29A
:104060002772934220D07B8840F2266293421BD075
:104070007B8840F22552934216D07B8840F224423E
:10408000934211D07B8840F6460293420CD07B8845
:1040900040F66A12934207D07B88602B04D040F22E
:1040A000B6413248FCF7A2FA7B78002B07D07B7828
:1040B000012B04D040F2B7412C48FCF797FA7B88DB
:1040C00040F66A12934210D17B68234A93420CD087
:1040D0007B68224A934208D07B68214A934204D0ED
:1040E00040F2BC412148FCF781FA7B687B617B8808
:1040F000DBB25B09DBB23B617B8803F01F03FB6033
:104100000122FB6802FA03F3BB603B69012B03D178
:104110007B690C337B6109E03B69022B03D17B692E
:1041200010337B6102E07B6914337B617B78002B69
:1041300006D07B6919687B69BA680A431A6006E091
:104140007B691968BB68DA437B690A401A6000BF63
:104150001837BD4680BD00BF003801400044004014
:1041600000480040004C004000500040704A0008E9
:1041700080B586B000AF78600B467B800023FB6083
:1041800000237B610023BB600023FB747B68584ADB
:10419000934214D07B68574A934210D07B68564AAA
:1041A00093420CD07B68554A934208D07B68544AAE
:1041B000934204D040F24B515248FCF717FA7B88E7
:1041C000282B33D07B8840F2277293422ED07B88F5
:1041D00040F22662934229D07B8840F225529342D6
:1041E00024D07B8840F2244293421FD07B8840F643
:1041F000460293421AD07B8840F66A12934215D049
:104200007B8840F22532934210D07B88B3F5587FEB
:104210000CD07B88B3F5187F08D07B88B3F5B07FCE
:1042200004D040F24C513748FCF7E0F97B8840F667
:104230006A12934210D17B682D4A93420CD07B685E
:104240002C4A934208D07B682B4A934204D040F218
:1042500051512C48FCF7CAF97B88DBB25B09DBB211
:10426000BB607B8803F01F037B6101227B6902FA3C
:1042700003F37B61BB68012B07D17B689B899BB2F1
:104280001A467B6913407B6111E0BB68022B07D1A2
:104290007B681B8A9BB21A467B6913407B6106E0F0
:1042A0007B689B8A9BB21A467B6913407B617B8843
:1042B0001B0A9BB2FB600122FB6802FA03F3FB605E
:1042C0007B681B889BB21A46FB681340FB607B69C6
:1042D000002B05D0FB68002B02D00123FB7401E00A
:1042E0000023FB74FB7C18461837BD4680BD00BF19
:1042F000003801400044004000480040004C0040AD
:1043000000500040704A000880B584B000AF78606B
:104310000B467B800023FB810023BB817B682C4AFA
:10432000934214D07B682B4A934210D07B682A4A70
:1043300093420CD07B68294A934208D07B68284A74
:10434000934204D040F295512648FCF74FF97B8800
:1043500040F22662934213D07B8840F2255293426A
:104360000ED07B8840F64602934209D07B8840F607
:104370006A12934204D040F296511A48FCF736F97B
:104380007B8840F66A12934210D17B68104A9342B0
:104390000CD07B680F4A934208D07B680E4A934248
:1043A00004D040F29B510F48FCF720F97B881B0A90
:1043B000FB81FB89012202FA03F3BB81BB89DB434A
:1043C0009AB27B681A8000BF1037BD4680BD00BF1F
:1043D000003801400044004000480040004C0040CC
:1043E00000500040704A000880B483B000AF03461C
:1043F000FB71FB7903F01F03012202FA03F1054A66
:1044000097F907305B0942F8231000BF0C37BD460F
:1044100080BC704700E100E080B586B002AF0023A9
:1044200000930023012200211C20FDF753FA0023F2
:1044300000930023012200211D20FDF74BFA0023E9
:1044400000930023012200211E20FDF743FA0023E0
:1044500000930023012200211F20FDF73BFA0023D7
:1044600000930023012200211B20FDF733FA0023D3
:1044700000930023012200211A20FDF72BFA0023CC
:1044800000930023012200210820FDF723FA3B1DA1
:104490001846FFF70FF801210120FEF7FBFD00236E
:1044A000FB804F23BB8040F28F13BB603B1D19463E
:1044B0004FF08040FEF752FF012200214FF0804074
:1044C000FFF7AEF80A214FF08040FFF76DF80221A8
:1044D0004FF08040FFF774FA01214FF08040FFF762
:1044E0006FFA012202214FF08040FFF7FDF8012210
:1044F00001214FF08040FFF7F7F801214FF0804095
:10450000FEF7EEFF1C20FFF76FFF0820FDF722FAF1
:104510006420FDF7C3FA022000F064F80520FDF7DF
:10452000BDFA2C2000F05EF80C2000F05BF80120B2
:1045300000F058F80220FDF7B1FA062000F052F81A
:104540002820FDF7ABFA00BF1037BD4680BD000044
:1045500080B582B000AF0346FB71174B4FF4704239
:104560005A83FB791B09DBB29BB2134A1B039BB234
:1045700013831B20FDF7EEF90220FDF767FA1B20DD
:10458000FDF704FA0C4B4FF470425A83FB791A037F
:10459000094B92B21A831B20FDF7DCF90220FDF7CC
:1045A00055FA1B20FDF7F2F92820FDF74FFA00BF5E
:1045B0000837BD4680BD00BF0004024080B582B010
:1045C00000AF786006E07B685A1C7A601B7818465A
:1045D000FFF7BEFF7B681B78002BF4D100BF0837C4
:1045E000BD4680BD80B582B000AF0346FB711A2086
:1045F000FDF7CCF9FB791846FFF7AAFF1A20FDF763
:10460000A9F900BF0837BD4680BD80B500AF0120C5
:10461000FFF7E8FF0220FDF741FA00BF80BD80B53B
:1046200082B000AF0346FB71FB79012B02D0022B55
:1046300004D007E08020FFF7D5FF03E0C020FFF79C
:10464000D1FF00BF00BF0837BD4680BD80B500AFB9
:10465000094B1B78622B0CD8074B1B780133DAB25D
:10466000054B1A70044B1B7819464FF08040FEF73B
:104670009BFF00BF80BD00BF3004002080B500AFAD
:10468000094B1B780A2B0CD9074B1B78013BDAB27C
:10469000054B1A70044B1B7819464FF08040FEF70B
:1046A00083FF00BF80BD00BF3004002080B400AF96
:1046B000024B1B781846BD4680BC70473004002072
:1046C00080B584B000AFFCF7F5FE0346FB81FCF734
:1046D0009DFE03463B81FDF701F80346FB80FFF793
:1046E000E5FF0346BB8000237B73FFF78EFF0120AD
:1046F000FFF795FFA048FFF761FFB7F90E30002BD9
:1047000007DA2D20FFF724FFFB895B429BB2FB8178
:1047100002E02B20FFF71CFFB7F90E30642B0FDDF2
:10472000B7F90E30954A82FB03125211DB17D31AE8
:104730001BB2DBB23033DBB21846FFF709FF02E0F1
:104740007B7B01337B73B7F90E308C4A82FB0312FB
:104750005111DA178A1A642101FB02F29B1A1BB26B
:10476000874A82FB03129210DB17D31A1BB2DBB20B
:104770003033DBB21846FFF7EBFEDF20FFF7E8FE31
:104780004320FFF7E5FE7F48FFF718FF00233B7348
:1047900005E02020FFF7DCFE3B7B01333B733A7BD7
:1047A0007B7B9A42F5D33B89744AA2FB03235B09C6
:1047B0009BB2DBB23033DBB21846FFF7C9FE3B8950
:1047C0006E4AA2FB03125209642101FB02F29B1AFA
:1047D0009BB26D4AA2FB0323DB089BB2DBB23033F2
:1047E000DBB21846FFF7B4FE2520FFF7B1FE002329
:1047F0007B730220FFF713FF6448FFF7DFFEFB889F
:1048000042F20F7293420CD9FB88614AA2FB032348
:104810005B0B9BB2DBB23033DBB21846FFF798FE7E
:1048200002E07B7B01337B73FB88B3F57A7F16D381
:10483000FB88574AA2FB0312520B42F2107101FB94
:1048400002F29B1A9BB2534AA2FB03239B099BB221
:10485000DBB23033DBB21846FFF77AFE02E07B7B37
:1048600001337B73FB88632B16D9FB88494AA2FB73
:10487000031292094FF47A7101FB02F29B1A9BB268
:104880003E4AA2FB03235B099BB2DBB23033DBB2AF
:104890001846FFF75DFE02E07B7B01337B73FB88EC
:1048A000092B14D9FB88354AA2FB03125209642153
:1048B00001FB02F29B1A9BB2334AA2FB0323DB08E3
:1048C0009BB2DBB23033DBB21846FFF741FEFA8809
:1048D0002D4BA3FB0213D9080B469B000B445B0036
:1048E000D31A9BB2DBB23033DBB21846FFF730FE8F
:1048F0002948FFF763FE0023FB7205E02020FFF745
:1049000027FEFB7A0133FB72FA7A7B7B9A42F5D35E
:104910002248FFF753FEBB88092B14D9BB88174ADE
:10492000A2FB03125209642101FB02F29B1A9BB203
:10493000154AA2FB0323DB089BB2DBB23033DBB2A8
:104940001846FFF705FEBA880F4BA3FB0213D908E0
:104950000B469B000B445B00D31A9BB2DBB2303397
:10496000DBB21846FFF7F4FD2520FFF7F1FD00BF8D
:104970001037BD4680BD00BF944A00081F85EB512B
:1049800067666666984A0008CDCCCCCCA04A000881
:104990005917B7D1D34D6210A44A0008AC4A000899
:1049A0002E2E2F7065726970682F53504C2F7372C2
:1049B000632F6D6973632E63000000002E2E2F702D
:1049C00065726970682F53504C2F7372632F737424
:1049D0006D33326C3178785F646D612E6300000056
:1049E0002E2E2F7065726970682F53504C2F737282
:1049F000632F73746D33326C3178785F6770696FD1
:104A00002E6300002E2E2F7065726970682F535030
:104A10004C2F7372632F73746D33326C3178785FFF
:104A20006932632E630000002E2E2F70657269704C
:104A3000682F53504C2F7372632F73746D33326C25
:104A40003178785F7263632E630000002E2E2F7022
:104A500065726970682F53504C2F7372632F737493
:104A60006D33326C3178785F74696D2E63000000AD
:104A70002E2E2F7065726970682F53504C2F7372F1
:104A8000632F73746D33326C3178785F7573617234
:104A9000742E6300543A000020202052483A00004F
:104AA000433A000070706D20000000004C3A000096
:104AB00000C1814001C0804101C0804100C18140EE
:104AC00001C0804100C1814000C1814001C08041DE
:104AD00001C0804100C1814000C1814001C08041CE
:104AE00000C1814001C0804101C0804100C18140BE
:104AF00001C0804100C1814000C1814001C08041AE
:104B000000C1814001C0804101C0804100C181409D
:104B100000C1814001C0804101C0804100C181408D
:104B200001C0804100C1814000C1814001C080417D
:104B300001C0804100C1814000C1814001C080416D
:104B400000C1814001C0804101C0804100C181405D
:104B500000C1814001C0804101C0804100C181404D
:104B600001C0804100C1814000C1814001C080413D
:104B700000C1814001C0804101C0804100C181402D
:104B800001C0804100C1814000C1814001C080411D
:104B900001C0804100C1814000C1814001C080410D
:104BA00000C1814001C0804101C0804100C18140FD
:104BB00000C0C101C30302C2C60607C705C5C404BD
:104BC000CC0C0DCD0FCFCE0E0ACACB0BC90908C82D
:104BD000D81819D91BDBDA1A1EDEDF1FDD1D1CDC1D
:104BE00014D4D515D71716D6D21213D311D1D0108D
:104BF000F03031F133F3F23236F6F737F53534F47D
:104C00003CFCFD3DFF3F3EFEFA3A3BFB39F9F838EC
:104C100028E8E929EB2B2AEAEE2E2FEF2DEDEC2CDC
:104C2000E42425E527E7E62622E2E323E12120E04C
:104C3000A06061A163A3A26266A6A767A56564A43C
:104C40006CACAD6DAF6F6EAEAA6A6BAB69A9A868AC
:104C500078B8B979BB7B7ABABE7E7FBF7DBDBC7C9C
:104C6000B47475B577B7B67672B2B373B17170B00C
:104C700050909151935352929656579755959454FC
:104C80009C5C5D9D5F9F9E5E5A9A9B5B995958986C
:104C9000884849894B8B8A4A4E8E8F4F8D4D4C8C5C
:104CA00044848545874746868242438341818040CC
:104CB000000002400004024000080240000C0240D4
:104CC00000100240030406080C10182030000000F9
:104CD00000000000010203040102030406070809A2
:014CE0000AC9
:04000005080000F9F6
:00000001FF
